:060000000A128A110C280F
:10000800FE00030EF1000A08F2000A128A11822883
:100018000A128A110F2883010A128A115328033001
:10002800831603178800890103308316031385009C
:1000380083120313850183160313870183120313A5
:10004800870183160313880183120313880183161B
:1000580003130F088F3960388F000F1483120313AE
:100068001F083F3940389F00831603131F129F1241
:10007800C330831203139F05831603139F13831240
:1000880003131F140D30F300F30B482883120313D6
:100098000C13831603130C170B178B1708000A127F
:1000A8008A1113200A128A11831203139F185D28DC
:1000B8005E2858281F0CF400740C0F39003A031DF1
:1000C800662867286C281F08C33904389F007728DA
:1000D8001F0CF400740C0F39013A031D742875289D
:1000E8007728C3309F050D30F400F40B792883126C
:1000F80003139F1458280A128A110C288312031319
:100108000C1F87288828A0281F0CF000700C0F39B6
:10011800003A031D9028912894281E0887009F28DC
:100128001F0CF000700C0F39013A031D9C289D2804
:100138009F281E0888000C1372088A00710E83001D
:06014800FE0E7E0E090010
:08400000FF3FFF3FFF3FFF3FC0
:04400E00D420FF3F7C
:00000001FF
