:060000000A128A1110280B
:10000800FE00030E83120313A6000408A7000A08C3
:10001800A8000A128A1101290A128A1113288313C7
:100028005030FD000330FE001F30FF0040308400D8
:100038000A128A1110230A128A11D001D101D201A1
:10004800D301D401D501D601D701FB01FC018301FD
:100058000A128A11112A83120313B501B01F352819
:1000680036283D28AF09B009AF0A0319B00AB5010F
:10007800B50AB21F402841284A28B109B209B10A75
:100088000319B20A0130B3003308B506B601B70147
:100098002F0830040319512852288928B401B40ABA
:1000A800602801300310AF0DB00DFF3E031D562828
:1000B8000130B3003308B407B01F632864285528FB
:1000C80001300310B60DB70DFF3E031D652830083B
:1000D8003202031D71282F083102031C7428752869
:1000E8007C282F08B1023008031CB203B202361470
:1000F80001300310B00CAF0CFF3E031D7D2801300A
:10010800B402031D882889286428350803198D2816
:100118008E289328B609B709B60A0319B70A37080B
:10012800B0003608AF00080083120313A101F71FBF
:100138009E289F28A628F609F709F60A0319F70A40
:10014800A101A10AF91FA928AA28B328F809F909C1
:10015800F80A0319F90A0130FA007A08A106A2017F
:10016800A301760877040319BA28BB28F228A0014E
:10017800A00AC92801300310F60DF70DFF3E031D34
:10018800BF280130FA007A08A007F71FCC28CD282D
:10019800BE2801300310A20DA30DFF3E031DCE287B
:1001A80077087902031DDA2876087802031CDD280F
:1001B800DE28E5287608F8027708031CF903F90217
:1001C800221401300310F70CF60CFF3E031DE6283D
:1001D8000130A002031DF128F228CD2821080319B7
:1001E800F628F728FC28A209A309A20A0319A30ADA
:1001F8002308F7002208F60008000C1F0429052927
:100208003F291F0CA400240C0F39003A031D0D29A7
:100218000E2911291E0886003D291F0CA400240C54
:100228000F39013A031D19291A293D293330F600DF
:100238000030F7001E08A400A5012408F0002508D6
:10024800F1006430F2000030F3000A128A11B6227D
:100258000A128A117108F9007008F8000A128A1146
:1002680098200A128A11770883120313D700760898
:10027800D6000C1357290B1D422943295729510829
:10028800A4002408F0005208A5002508F100500831
:100298000A128A115C220A128A11FE300A128A1185
:1002A8002F230A128A118312031328088A002708A9
:1002B8008400260E8300FE0E7E0E09006430831231
:1002C8000313AF000030B0003908B2003808B1009D
:1002D8000A128A112F200A128A11831203132F0877
:1002E800BA003A08D5000A30AF000030B00055080F
:1002F800BA00BB013A08A9003B08AA009C30AB0031
:10030800FF30AC000A128A118F220A128A11831256
:10031800031338082907B10039080318390A2A07CE
:10032800B2000A128A112F200A128A1183120313AB
:100338002F08BC003C08D4009C30BA003A08A90039
:1003480055080A128A11F5220A128A118312031318
:10035800BB00F630BC003C08A90054080A128A11F8
:10036800F5220A128A11831203133B073807BD00CE
:100378003D08D3000800033083160317880089015D
:100388000330831603138500831203138501831634
:10039800031386018312031386018316031387014F
:1003A800831203138701F83083160313880083121E
:1003B80003138801831603130F088F3960388F00E1
:1003C8000F148112811107308104FE308312031348
:1003D80081001F083F3940389F00831603131F12FE
:1003E8009F12C330831203139F05831603139F13B1
:1003F800831203131F140C3083120313A900A90BD3
:10040800032A0000831203130C13831603130C171B
:100418000B178B178B160B1108000A128A11BF21B4
:100428000A128A11831203139F181B2A1C2A3F2AB7
:100438001F0CBE003E0C0F39003A031D242A252A42
:100448002A2A1F08C33904389F00352A1F0CBE000A
:100458003E0C0F39013A031D322A332A352AC3309C
:100468009F050C3083120313BE00BE0B392A00000F
:10047800831203139F145708B9005608B8000A12CC
:100488008A1162210A128A11831203135408BE00CA
:100498003E08A9005508BF003F08AA0053080A12E1
:1004A8008A11DB220A128A11162A0A128A111028C6
:1004B800F400831203130810881008117B2A7408AB
:1004C80087000814FB01FB0A88178E2A700887002A
:1004D80088140230F2007208FB008E2A7108870027
:1004E8000815FB018E2A803087000814752A7B08BE
:1004F800F200F3017308003A0319832A772A720875
:10050800003A0319632A013A03196A2A033A0319BC
:10051800722A772A080083120313AD01AE01291C41
:10052800962A972A9D2A2B08AD070318AE0A2C088D
:10053800AE0701300310AB0DAC0DFF3E031D9E2A24
:1005480001300310AA0CA90CFF3E031DA52A290897
:100558002A04031DB02AB12A932A2E08AA002D08BE
:10056800A9000800F401F501701CBB2ABC2AC22AA4
:100578007208F4070318F50A7308F5070130031029
:10058800F20DF30DFF3E031DC32A01300310F10CD9
:10059800F00CFF3E031DCA2A70087104031DD52AFA
:1005A800D62AB82A7508F1007408F00008008312EA
:1005B8000313AC002A08403E840083130008AB00F4
:1005C8002B08D0002908403E84000008AB002B0807
:1005D800D1002C08403E84000008AB002B08D20054
:1005E800080083120313AC00AB012C1CFC2AFD2A63
:1005F800012B2908AA002A08AB070310A90D03102C
:10060800AC0C2C08031D092B0A2BF92A2B0808000F
:100618007E088A007F0882000A128A110C230A12B7
:100628008A118000840A04087D0603190034FF0A31
:100638000319FE0A102B3F3406345B344F346634FA
:100648006D347D3407347F346F3477347C343934F7
:100658005E3479347134F00070088312031381001A
:040668000B1108006A
:08400000FF3FFF3FFF3FFF3FC0
:04400E00D420FF3F7C
:00000001FF
