:060000000A128A110E280D
:10000800FE00030EF7000408F8000A08F9000A12B7
:100018008A1127290A128A11112883134630FD00F4
:100028000230FE005330FF00363084000A128A1175
:1000380044220A128A11C601C701C801C901CA01AE
:10004800CB01CC01CD01FA01FB0183010A128A110F
:10005800DC28643083120313A6000030A7002F08A1
:10006800A9002E08A8000A128A116F210A128A1103
:10007800831203132608B0003008CB000A30A6000C
:100088000030A7004B08B000B1013008A0003108CB
:10009800A1009C30A200FF30A3000A128A11E821B7
:1000A8000A128A11831203132E082007A8002F08AA
:1000B80003182F0A2107A9000A128A116F210A12B0
:1000C8008A11831203132608B2003208CA009C3032
:1000D800B0003008A0004B080A128A1129220A121F
:1000E8008A1183120313B100F630B2003208A0005F
:1000F8004A080A128A1129220A128A118312031342
:1001080031072E07B3003308C900080003308316EF
:1001180003178800890103308316031385008312AF
:1001280003138501831603138601831203138601C3
:10013800831603138701831203138701F83083168C
:1001480003138800831203138801831603130F080F
:100158008F3960388F000F148112811107308104A4
:10016800FE308312031381001F083F3940389F0077
:10017800831603131F129F12C330831203139F05A4
:10018800831603139F13831203131F140C30831257
:100198000313A000A00BCE280000831203130C1336
:1001A800831603130C170B178B178B160B110800EC
:1001B8000A128A118A200A128A11831203139F18BD
:1001C800E628E7280A291F0CB400340C0F39003A36
:1001D800031DEF28F028F5281F08C33904389F00AD
:1001E80000291F0CB400340C0F39013A031DFD28F7
:1001F800FE280029C3309F050C3083120313B40076
:10020800B40B04290000831203139F144D08AF0098
:100218004C08AE000A128A112D200A128A11831284
:1002280003134A08B4003408A0004B08B500350889
:10023800A10049080A128A110F220A128A11E1281C
:100248000A128A110E28831203130C1F2C292D2938
:100258004E291F0CF500750C0F39003A031D35297E
:10026800362939291E0886004C291F0CF500750C03
:100278000F39013A031D412942294C291E08F5006E
:10028800F6010310F50DF60D7508CC007608CD00C3
:100298000C1366290B1D5129522966294708F500B8
:1002A8007508F0004808F6007608F10046080A12BA
:1002B8008A11B5210A128A11FE300A128A116322A4
:1002C8000A128A1179088A0078088400770E830058
:1002D800FE0E7E0E090083120313AB01AC01260843
:1002E8002704031978297929B029AD01AD0A87298E
:1002F80001300310A60DA70DFF3E031D7D29013017
:10030800AA002A08AD07A71F8A298B297C29013052
:100318000310AB0DAC0DFF3E031D8C2927082902E5
:10032800031D982926082802031C9B299C29A32918
:100338002608A8022708031CA903A9022B140130C8
:100348000310A70CA60CFF3E031DA4290130AD0223
:10035800031DAF29B0298B292C08A7002B08A6005C
:100368000800F40083120313081088100811D42918
:10037800740887000814FA01FA0A8817E729700830
:10038800870088140230F2007208FA00E729710821
:1003980087000815FA01E729803087000814CE295C
:1003A8007A08F200F3017308003A0319DC29D0290E
:1003B8007208003A0319BC29013A0319C329033A00
:1003C8000319CB29D029080083120313A401A5011E
:1003D800201CEF29F029F6292208A4070318A50AEA
:1003E8002308A50701300310A20DA30DFF3E031D2E
:1003F800F72901300310A10CA00CFF3E031DFE29B4
:1004080020082104031D092A0A2AEC292508A1002D
:100418002408A000080083120313A3002108363E15
:10042800840083130008A2002208C6002008363E74
:1004380084000008A2002208C7002308363E840072
:100448000008A2002208C800080083120313A300B2
:10045800A201231C302A312A352A2008A1002108AC
:10046800A2070310A00D0310A30C2308031D3D2AA7
:100478003E2A2D2A220808007E088A007F0882006A
:100488000A128A1140220A128A118000840A04087A
:100498007D0603190034FF0A0319FE0A442A3F3473
:1004A80006345B344F3466346D347D3407347F341E
:1004B8006F3477347C3439345E3479347134F000F5
:0C04C80070088312031381000B11080060
:08400000FF3FFF3FFF3FFF3FC0
:04400E00D420FF3F7C
:00000001FF
